:100000000C9434000C9451000C9451000C94510049
:100010000C9451000C9451000C9451000C9451001C
:100020000C9451000C9451000C94A6010C945100B6
:100030000C9451000C9455020C9451000C945100F6
:100040000C9451000C9451000C9451000C945100EC
:100050000C9451000C9451000C9451000C945100DC
:100060000C9451000C94510011241FBECFEFD8E026
:10007000DEBFCDBF11E0A0E0B1E0E4EEF5E002C0EC
:1000800005900D92A230B107D9F721E0A2E0B1E0CE
:1000900001C01D92A332B207E1F70E94A1020C94A5
:1000A000F0020C940000892B09F4B0C0809100018B
:1000B000853621F489E6809300010895893621F47C
:1000C00083E7809300010895833721F488E68093C5
:1000D00000010895853721F486E680930001089594
:1000E000813621F482E7809300010895823721F45C
:1000F0008CE6809300010895873721F480E7809390
:1001000000010895843721F48EE68093000108955C
:100110008D3621F487E68093000108958E3621F410
:1001200084E6809300010895843621F482E680936A
:10013000000108958B3621F483E680930001089531
:10014000873621F48AE7809300010895883689F480
:1001500085E38093000160E071E08AE091E00E9415
:10016000E5028AE091E00E94BE0280E280930001F5
:100170000895823689F486E38093000160E071E09F
:100180008AE091E00E94E5028AE091E00E94BE02CE
:1001900080E28093000108958F3689F488E380938C
:1001A000000160E071E08AE091E00E94E5028AE0EF
:1001B00091E00E94BE0280E280930001089589339D
:1001C00071F460E071E08AE091E00E94E5028AE06B
:1001D00091E00E94BE0280E28093000108958A3778
:1001E00089F487E38093000160E071E08AE091E0A8
:1001F0000E94E5028AE091E00E94BE0280E28093C4
:100200000001089585E68093000108958091000122
:10021000853621F481E6809300010895893621F422
:1002200085E7809300010895833721F486E7809362
:1002300000010895873721F48AE68093000108952C
:10024000813621F487E7809300010895843721F4F3
:100250008DE68093000108958D3621F48FE680931A
:10026000000108958E3621F48BE6809300010895F5
:10027000843621F488E78093000108958B3621F4B9
:1002800089E7809300010895873621F481E7809300
:10029000000108958A3621F481E3809300010895D6
:1002A000853789F482E38093000160E071E08AE0A1
:1002B00091E00E94E5028AE091E00E94BE0280E2A5
:1002C000809300010895863789F483E380930001C9
:1002D00060E071E08AE091E00E94E5028AE091E04E
:1002E0000E94BE0280E2809300010895883689F45E
:1002F00084E38093000160E071E08AE091E00E9475
:10030000E5028AE091E00E94BE0280E28093000153
:1003100008958F3621F489E380930001089589338D
:1003200089F480E38093000160E071E08AE091E06D
:100330000E94E5028AE091E00E94BE0280E2809382
:100340000001089584E78093000108951F920F92A1
:100350000FB60F9211240F931F932F933F934F9338
:100360005F936F937F938F939F93AF93BF93EF931D
:10037000FF93E09181000091860010918700209109
:100380000601309107014091080150910901AFEF3A
:10039000BFEF0E94CB02DC01CB01800F911FA11D9A
:1003A000B11D0091020110910301209104013091CF
:1003B0000501AC01BD01401B510B620B730B8A019F
:1003C0009B018093020190930301A0930401B093D9
:1003D0000501E6FF40C0E1E8F0E080818F7B80838B
:1003E000DB01CA0184569109A109B1098C399946EA
:1003F000A841B105A0F485B1826085B96FEF70E7BF
:1004000082E0615070408040E1F700C0000081E070
:1004100090E00E94530085B18D7F85B933C01A5694
:100420002841310901151A462841310558F585B191
:10043000846085B92FEF40E752E0215040405040A2
:10044000E1F700C0000080E090E00E94530085B119
:100450008B7F85B917C0E1E8F0E0808180648083FC
:100460000115144D2043310568F060E071E08AE029
:1004700091E00E94E5028AE091E00E94BE0280E2E3
:1004800080930001FF91EF91BF91AF919F918F9168
:100490007F916F915F914F913F912F911F910F919C
:1004A0000F900FBE0F901F9018951F920F920FB6CE
:1004B0000F9211248F939F93AF93BF938091060166
:1004C00090910701A0910801B09109010196A11D29
:1004D000B11D8093060190930701A0930801B0938A
:1004E0000901BF91AF919F918F910F900FBE0F9017
:1004F0001F901895F894E1E8F0E010828081826006
:10050000808380818F7B808386B3806286BB86B345
:10051000816086BB1092800014B884B1806284B977
:1005200084B1826084B984B1846084B915B8EFE67F
:10053000F0E0808180628083808181608083789414
:10054000089587E690E00E94A8020E947A02FFCFF9
:100550009093C5008093C40088E18093C100E2ECD1
:10056000F0E080818860808386E0808308959091A8
:10057000C00095FFFCCF8093C6000895CF93DF9312
:10058000EC0103C00E94B702219688818111FACF45
:10059000DF91CF9108950E94D602A59F900DB49F40
:1005A000900DA49F800D911D11240895A29FB0016C
:1005B000B39FC001A39F700D811D1124911DB29F97
:1005C000700D811D1124911D0895FB01DC010D901A
:1005D0000020E9F7119701900D920020E1F70895AE
:0405E000F894FFCFBD
:0205E4002000F5
:00000001FF
