:100000000C9434000C9451000C9451000C94510049
:100010000C9451000C9451000C9451000C9451001C
:100020000C9451000C9451000C9451000C9451000C
:100030000C9451000C9451000C9451000C945100FC
:100040000C9451000C9451000C9451000C945100EC
:100050000C9451000C9451000C9451000C945100DC
:100060000C9451000C94510011241FBECFEFD8E026
:10007000DEBFCDBF11E0A0E0B1E0E6EAF1E002C0F2
:1000800005900D92AA30B107D9F721E0AAE0B1E0BE
:1000900001C01D92AA30B207E1F70E94A6000C949D
:1000A000D1000C940000092E000CAA0BBB0B880F8A
:1000B000991FAA1FBB1F880F991FAA1FBB1F9C0156
:1000C000AD01220F331F441F551F220F331F441F42
:1000D000551F60E074E284EF90E00E94AF00BA0127
:1000E000A9014150510961097109BB27A72F962F1A
:1000F000852F8093C5004093C400E2ECF0E080813E
:100100008F77808380818F7B8083808188608083EC
:1001100080818B7F808380818660808388E180936B
:10012000C10008959091C00095FFFCCF8093C60058
:100130000895CF93DF93EC0103C00E9492002196B3
:1001400088818111FACFDF91CF91089580E895E2FF
:100150000E94530080E091E00E949900FBCFA1E251
:100160001A2EAA1BBB1BFD010DC0AA1FBB1FEE1F31
:10017000FF1FA217B307E407F50720F0A21BB30B7C
:10018000E40BF50B661F771F881F991F1A9469F7F8
:1001900060957095809590959B01AC01BD01CF0154
:0601A0000895F894FFCF62
:0A01A60054657374696E670A000067
:00000001FF
