:100000000C9434000C943E000C943E000C943E0082
:100010000C943E000C943E000C943E000C943E0068
:100020000C943E000C943E000C943E000C943E0058
:100030000C943E000C943E000C943E000C943E0048
:100040000C943E000C943E000C943E000C943E0038
:100050000C943E000C943E000C943E000C943E0028
:100060000C943E000C943E0011241FBECFEFD8E04C
:10007000DEBFCDBF0E9464000C9478000C94000099
:1000800084B18E6184B91AB81BB808959C0123709D
:100090003327232B19F482E085B908958370907873
:1000A000992324F401978C6F9F6F019681309105FD
:1000B00019F484E085B90895029719F488E085B9A8
:1000C000089580E185B908950E944000CFEFDFEFE9
:1000D0004F9B04C02196CE010E9446002FEF84E37F
:1000E0009CE0215080409040E1F700C00000F0CF3C
:0400F000F894FFCFB2
:00000001FF
