:100000000C943E000C945B000C945B000C945B0021
:100010000C945B000C945B000C944B020C945B0002
:100020000C945B000C945B000C945B000C945B00E4
:100030000C945B000C945B000C945B000C945B00D4
:100040000C945B000C945B000C945B000C945B00C4
:100050000C945B000C945B000C945B000C945B00B4
:100060000C945B000C945B00FE0BFE0BFE0B280C4B
:10007000300C400CFE0BFE0B280C300C11241FBE64
:10008000CFEFD8E0DEBFCDBF11E0A0E0B1E0EAEDF8
:10009000FCE102C005900D92A832B107D9F721E02A
:1000A000A8E2B1E001C01D92AF3AB207E1F70E94A9
:1000B0000E0D0C946B0E0C940000CF93DF93EC01AB
:1000C0000E944707CE010E943A0DEC010E941508DC
:1000D000209711F40E949B00CE01DF91CF910895EB
:1000E000CF93DF93009741F0EC010E944707CE01C8
:1000F0000E94D20D0E941508DF91CF9108958FE3E1
:1001000080937E0080B7877F80BF80B7806880BF84
:1001100083B7817F83BF0FB6F8940F9283B7816056
:1001200083BF85B7806685BF8F7D85BF0F900FBE6B
:10013000889513BE089584B1806284B985B18062C8
:1001400085B983ED90E30197F1F700C0000083B11A
:10015000806283B9F6CF84B1806284B985B1806250
:1001600085B92FE78AE196E0215080409040E1F781
:1001700000C0000083B1806283B9F3CFFC01039615
:10018000928381832FEF3FEF34832383968385838C
:100190009087878310820895FC0111861086089548
:1001A000CF93DF939C01FB01DC011196CD91DC9193
:1001B0001297D383C2838C819D81958384838C81A4
:1001C0009D81DC0113967C936E9312977D836C83E3
:1001D00031872087F90180818F5F8083DF91CF9104
:1001E0000895CF93DF93EB01488159814F3F2FEF63
:1001F000520721F4FC01A781B0850DC0DC011396E4
:1002000001C0DF011296ED91FC911397208131819D
:1002100042175307B0F71296ED91FC911397FB83A9
:10022000EA83D583C483BD83AC831396DC93CE93DA
:10023000129799878887FC0120812F5F2083DF91A7
:10024000CF910895CF93DF93FC01A085B185C28142
:10025000D381848195819D838C83C481D581828162
:1002600093819B838A8311968D919C911297E817B5
:10027000F90731F48481958112969C938E9311979E
:10028000118610868C9181508C938C91DF91CF9147
:100290000895A89590EC88E10FB6F894A8958093FE
:1002A00060000FBE909360000895FC016083319759
:1002B000708331971082319720E820833197108224
:1002C0007797408331975083839708950E9449011F
:1002D000A0918D01B0918E01CD91CDBFDD91DEBF9A
:1002E000FF91EF91DF91CF91BF91AF919F918F914E
:1002F0007F916F915F914F913F912F911F910F913E
:10030000FF90EF90DF90CF90BF90AF909F908F9035
:100310007F906F905F904F903F902F901F900F9025
:100320000FBE0F90089581E008950F920FB6F894D4
:100330000F921F9211242F923F924F925F926F92D1
:100340007F928F929F92AF92BF92CF92DF92EF9265
:10035000FF920F931F932F933F934F935F936F934E
:100360007F938F939F93AF93BF93CF93DF93EF933D
:10037000FF93A0918D01B0918E010DB60D920EB636
:100380000D920E948B08A0918D01B0918E01CD91AC
:10039000CDBFDD91DEBFFF91EF91DF91CF91BF9196
:1003A000AF919F918F917F916F915F914F913F910D
:1003B0002F911F910F91FF90EF90DF90CF90BF9002
:1003C000AF909F908F907F906F905F904F903F90F5
:1003D0002F901F900F900FBE0F9008950F920FB6A1
:1003E000F8940F921F9211242F923F924F925F9296
:1003F0006F927F928F929F92AF92BF92CF92DF9235
:10040000EF92FF920F931F932F933F934F935F931E
:100410006F937F938F939F93AF93BF93CF93DF930C
:10042000EF93FF93A0918D01B0918E010DB60D92C7
:100430000EB60D9213BE0E94570781110E948B08C1
:10044000A0918D01B0918E01CD91CDBFDD91DEBF28
:10045000FF91EF91DF91CF91BF91AF919F918F91DC
:100460007F916F915F914F913F912F911F910F91CC
:10047000FF90EF90DF90CF90BF90AF909F908F90C4
:100480007F906F905F904F903F902F901F900F90B4
:100490000FBE0F9008950E94EE0118950FB6F894C4
:1004A0000F92FC01828D811102C081E001C080E0C9
:1004B0000F900FBE08950FB6F8940F92FC01228D95
:1004C000838D281302C081E001C080E00F900FBE31
:1004D00008950F931F93CF93DF93EC01042F1A8D90
:1004E0004C8D41110CC088819981892B09F042C043
:1004F0008C819D810E94C6091D821C8242C001110F
:1005000017C050E08A819B810E945B0E2C8D8A81EE
:100510009B81820F911D9B838A832C813D81821751
:10052000930750F1888199819B838A8380E029C059
:1005300050E08E819F810E945B0E8C8D90E09195A2
:10054000819591092E813F81280F391F3F832E838A
:10055000488159812417350730F42C813D81820F61
:10056000931F9F838E83023049F4112349F0115069
:1005700080E007C080E005C080E003C080E001C0EB
:1005800080E01F5F1A8FDF91CF911F910F91089527
:10059000FC01448D4423A9F050E026813781240FCB
:1005A000351F37832683848195812817390720F0EA
:1005B0008081918197838683CB01668177810E94B8
:1005C0005B0E08951F93CF93DF93EC010FB6F89461
:1005D0000F921E8D0BC08989882351F0CE01419660
:1005E0000E94250981110E94B409115011169CF333
:1005F0008FEF8E8F0F900FBE0FB6F8940F921D8D58
:100600000BC08885882351F0CE0108960E942509E9
:1006100081110E94B409115011169CF38FEF8D8F38
:100620000F900FBEDF91CF911F910895CF93DF936D
:10063000EC010FB6F8940F92E881F9818B8D2C8D27
:1006400090E030E0829FA001839F500D929F500D5B
:1006500011244E0F5F1F5D834C831A8EFB83EA8348
:100660000197289FA001299F500D389F500D1124FC
:10067000CF01840F951F9F838E838FEF8D8F8E8F79
:1006800061110CC08885882389F0CE0108960E94EC
:100690002509882359F00E94950108C0CE010896CB
:1006A0000E94BE00CE0141960E94BE000F900FBE78
:1006B00081E0DF91CF9108950F931F93F8016111AD
:1006C00003C01183008302C051834083838F648FF2
:1006D00061E0CF010E9416031F910F910895DF92F0
:1006E000EF92FF920F931F93CF93DF93F82EE62E96
:1006F000D42E869FC00111244F960E945D00EC010C
:10070000009749F08C012D2DAC01415E5F4F6E2D9D
:100710008F2D0E945C03CE01DF91CF911F910F912D
:10072000FF90EF90DF900895CF92DF92EF92FF92CB
:100730000F931F93CF93DF9300D000D01F92CDB7BC
:10074000DEB78C017B015D834C83C22ED12C0FB6AA
:10075000F8940F92F801928D838D981718F0F2E0BB
:10076000CF1219C04C2DB701C8010E946902F801CF
:100770009189992349F0C80141960E94250988234F
:1007800031F00E94950103C081110E9495010F90E4
:100790000FBE81E04DC08C819D81892B21F40F908B
:1007A0000FBE80E045C0D11006C0CE0101960E9468
:1007B0006D09DD24D3940F900FBE0E9447070FB63A
:1007C000F8940F92F801858D8F3F09F4158EF8018A
:1007D000868D8F3F09F4168E0F900FBEBE016C5FA1
:1007E0007F4FCE0101960E94780981111BC0C8017C
:1007F0000E945B02882381F06C817D81C80108968C
:100800000E94FA08C8010E94E2020E9415088111A4
:100810009ECF0E9495019BCFC8010E94E2020E94D8
:10082000150895CFC8010E94E2020E94150880E0D9
:100830000F900F900F900F900F90DF91CF911F911D
:100840000F91FF90EF90DF90CF900895EF92FF927D
:100850000F931F93CF93DF938A01FC01528D338D49
:10086000531710F0223001F5422F7801EC011E8D54
:100870008A8DCE010E9469021F3F81F489898823F5
:10088000A9F0CE0141960E942509882389F0E11440
:10089000F10481F081E0F70180830DC0FF24F3941F
:1008A000F10EFE8E81E007C080E005C081E003C04C
:1008B00081E001C081E0DF91CF911F910F91FF9006
:1008C000EF900895CF92DF92EF92FF920F931F93D4
:1008D000CF93DF9300D000D01F92CDB7DEB78C014D
:1008E0006B015D834C83E12C0FB6F8940F92F801F5
:1008F000F28CFF20A9F0B601C8010E94C802FA9448
:10090000F801F28E8085882339F0C80108960E948C
:10091000250981110E9495010F900FBE81E053C0FF
:100920008C819D81892B21F40F900FBE80E04BC0FC
:10093000E11006C0CE0101960E946D09EE24E394F9
:100940000F900FBE0E9447070FB6F8940F92F80160
:10095000858D8F3F09F4158EF801868D8F3F09F440
:10096000168E0F900FBEBE016C5F7F4FCE010196B9
:100970000E94780981111BC0C8010E944E02882381
:1009800081F06C817D81C80141960E94FA08C801FE
:100990000E94E2020E9415088111A6CF0E949501D3
:1009A000A3CFC8010E94E2020E9415089DCFC80192
:1009B0000E94E2020E941508C8010E944E0288238C
:1009C00009F492CF80E00F900F900F900F900F904E
:1009D000DF91CF911F910F91FF90EF90DF90CF901B
:1009E0000895CF93DF93EC010FB6F8940F928D8D9D
:1009F0008F3F09F41D8E8E8D8F3F09F41E8E0F9050
:100A00000FBE8A8D811104C0CE0141960E940C094F
:100A1000CE010E94E202DF91CF910895E09155014D
:100A2000F09156018081811107C08FEF9FEF909365
:100A30002C0180932B010895E0915501F09156010E
:100A40000580F681E02D0680F781E02D828193817B
:100A500090932C0180932B010895CF93DF93EC01A9
:100A60008F89988D0E947000CE010E947000DF91E6
:100A7000CF9108954F925F926F927F928F929F9243
:100A8000AF92BF92CF92DF92EF92FF920F93CF93EC
:100A9000DF932C015B014A013901E60165EA70E050
:100AA0008F89988D0E94640E8F89988D21E0821A1B
:100AB0009108880E991EA114B10489F415C0822FE3
:100AC00090E0F501E80FF91F3081DE01A80FB91F92
:100AD00059963C938081882329F02F5F01C020E044
:100AE000283068F318A201C0198E043008F003E022
:100AF0000E8B09A31AA2CE0102960E94CC00CE0151
:100B00000C960E94CC00D987C88784E090E0801BB7
:100B100091099D878C87DB8BCA8B1BA21CA21DA20F
:100B20001EA21FA2A301B201C4010E945501998314
:100B30008883E114F10419F0F701D183C083DF91B8
:100B4000CF910F91FF90EF90DF90CF90BF90AF903B
:100B50009F908F907F906F905F904F900895CF936C
:100B6000C0E010C08C2F90E09C01220F331F220F99
:100B7000331F220F331F820F931F87599E4F0E94EE
:100B8000BE00CF5FC43070F380E691E00E94BE00EB
:100B900087E591E00E94BE008AE491E00E94BE00D9
:100BA00081E491E00E94BE0087E391E00E94BE00D4
:100BB00080E691E0909356018093550187E591E09E
:100BC0009093540180935301CF910895CF93DF9375
:100BD000EC010FB6F8940F92809136018F5F8093ED
:100BE000360180918D0190918E01892B59F4D0931B
:100BF0008E01C0938D0180913601813099F40E945D
:100C0000AF0510C08091320181110CC0E0918D01BF
:100C1000F0918E0196898E89891720F0D0938E01EC
:100C2000C0938D0180912D018F5F80932D018E895E
:100C300090913301981710F48093330190E09C0158
:100C4000220F331F220F331F220F331F820F931FD8
:100C5000BE016E5F7F4F87599E4F0E94D0000F905C
:100C60000FBE80913201882351F0E0918D01F09107
:100C70008E0196898E89981710F40E949501DF9154
:100C8000CF910895CF93DF931CC00FB6F8940F92C5
:100C9000E0914601F0914701C681D781CE010296CD
:100CA0000E9422018091360181508093360180910B
:100CB00040018150809340010F900FBECE010E94F1
:100CC0002D05809140018111E0CFDF91CF910895F2
:100CD000FF920F931F93CF93DF93EC01F62E0091B9
:100CE00034011091350180918D0190918E01029611
:100CF0000E942201CF3F8FEFD80769F4FF2059F0FF
:100D000060918D0170918E016E5F7F4F87E391E05E
:100D10000E94D0002FC0C00FD11FE0918D01F09133
:100D20008E01D383C283C017D10768F460918D010F
:100D300070918E0180915301909154016E5F7F4FAD
:100D40000E94F10017C060918D0170918E01809119
:100D50005501909156016E5F7F4F0E94F100809186
:100D60002B0190912C01C817D90720F4D0932C01A6
:100D7000C0932B01DF91CF911F910F91FF900895A8
:100D80000E94420680916901823010F00E94950114
:100D90000E947F00F5CF2F923F924F925F926F9209
:100DA0007F928F929F92AF92BF92CF92DF92EF92FB
:100DB000FF920F93CF93DF933C011B014A0129015E
:100DC000CA010E945D006C01892B71F088E290E0FD
:100DD0000E945D00EC01892B19F0D88ECF8A06C0E5
:100DE000C6010E94700002C0C0E0D0E0209771F000
:100DF000A12CB12C6E019201A401B101C3010E948A
:100E00003A05CE010E94E60581E001C08FEFDF9137
:100E1000CF910F91FF90EF90DF90CF90BF90AF9068
:100E20009F908F907F906F905F904F903F902F900A
:100E30000895EF92FF920F930F2EF9E2EF2EF1E05B
:100E4000FF2EF02D00E020E030E045E550E066E0C8
:100E500071E080EC96E00E94CB06813011F40E9494
:100E6000730A813081F4F8948FEF9FEF90932C01F7
:100E700080932B0181E08093320110923501109212
:100E800034010E9466010F91FF90EF9008958091C8
:100E900028018F5F8093280108950FB6F8940F9270
:100EA00080913401909135010F900FBE0895DF922B
:100EB000EF92FF920F931F93CF93DF9380912801BE
:100EC00081119DC0E0903401F09035018FEFE81A58
:100ED000F80AF0923501E0923401E114F104B9F41A
:100EE0008091550190915601209153013091540108
:100EF00030935601209355019093540180935301F0
:100F000080912E018F5F80932E010E940E058091AB
:100F10002B0190912C01E816F90628F4D12C53C02E
:100F2000DD24D39401C0D12CE0915501F0915601FC
:100F30008081811107C08FEF9FEF90932C018093E8
:100F40002B0141C0E0915501F09156010580F681D9
:100F5000E02DC681D7818A819B81E816F90628F4A5
:100F600090932C0180932B012EC08E010E5F1F4F9A
:100F7000C8010E9422018C899D89892B21F0CE0114
:100F80000C960E9422018E8990913301981710F4DB
:100F90008093330190E09C01220F331F220F331FF7
:100FA000220F331F820F931FB80187599E4F0E9453
:100FB000D0009E89E0918D01F0918E01868998176D
:100FC00008F0AECFB1CFE0918D01F0918E0186890E
:100FD00090E0FC01EE0FFF1FEE0FFF1FEE0FFF1F53
:100FE0008E0F9F1FFC01E759FE4F8081823010F069
:100FF000DD24D39480912F0181110CC00DC080910C
:10100000300190913101019690933101809330012C
:10101000D12C02C0DD24D3948D2DDF91CF911F916F
:101020000F91FF90EF90DF9008950F931F93CF9350
:10103000DF930FB6F8940F9280912801815080932E
:1010400028018091280181115CC0809136018111B5
:1010500033C05AC0E0914F01F0915001C681D78151
:10106000CE010C960E9422018E010E5F1F4FC80117
:101070000E9422018E8990913301981710F4809379
:10108000330190E09C01220F331F220F331F220FE8
:10109000331F820F931FB80187599E4F0E94D000C3
:1010A0009E89E0918D01F0918E018689981730F02C
:1010B00081E080932F0102C0C0E0D0E080914A011E
:1010C0008111C8CFCD2B11F00E940E05C0913001C7
:1010D000D0913101209769F00E945707882319F0B9
:1010E00081E080932F012197B9F71092310110927E
:1010F000300180912F01882331F00E94950181E019
:1011000003C080E001C080E00F900FBEDF91CF915F
:101110001F910F91089580912801882321F081E08B
:1011200080932F01089510922F01E0918D01F0918D
:101130008E0120813181E0918D01F0918E018789AE
:10114000908D8217930760F060918D0170918E01F0
:10115000675E7F4F80918D0190918E010E94AB0060
:101160002091330101C02150822F90E0FC01EE0F4D
:10117000FF1FEE0FFF1FEE0FFF1FE80FF91FE759CC
:10118000FE4F3081332379F3AC01440F551F440FD8
:10119000551F440F551F480F591FDF010180F28171
:1011A000E02D0280F381E02D1296FC93EE931197CF
:1011B00044595E4FE417F50729F442815381FD013C
:1011C00052834183FC01EE0FFF1FEE0FFF1FEE0F56
:1011D000FF1F8E0F9F1FFC01E759FE4F0180F28118
:1011E000E02D8681978190938E0180938D012093CD
:1011F00033010895CF93DF93EB0160918D017091DE
:101200008E01645F7F4F0E94F10061E0CE010E9479
:101210006806DF91CF9108950F931F93CF938B01B1
:10122000C42F60918D0170918E01645F7F4F0E9489
:10123000D000CC2311F00FEF1FEF6C2FC8010E94DC
:101240006806CF911F910F9108950F931F93CF932D
:10125000DF93DC011596ED91FC911697C681D7813D
:101260008E01045F1F4FC8010E9422018091280156
:1012700081111CC00A501109C8010E9422018E89E7
:1012800090913301981710F48093330190E09C0102
:10129000220F331F220F331F220F331F820F931F82
:1012A000B80187599E4F0E94D00005C0B8018AE45A
:1012B00091E00E94D0009E89E0918D01F0918E0115
:1012C0008689891720F481E080932F0101C080E096
:1012D000DF91CF911F910F91089520912E01FC0174
:1012E0002083209134013091350132832183089588
:1012F0001F93CF93DF930FB6F8940F92E0913401D0
:10130000F0913501DC0111964D915C911297DF014E
:10131000A41BB50BEB01288139812F3FDFEF3D077F
:10132000D1F0EC011881C0912E011C1719F0E417BF
:10133000F50798F4A217B30748F4FB012A1B3B0BEF
:10134000318320830E946D0980E008C0FB01118277
:10135000108281E003C080E001C081E00F900FBEE9
:10136000DF91CF911F91089581E080932F0108951F
:1013700080913201882331F080912801811104C0CD
:1013800082E0089581E0089580E008950F931F930F
:10139000CF93DF93FC01892B79F182A1815082A345
:1013A000268991A1291751F181112AC0EF018F01DE
:1013B0000E5F1F4FC8010E94220189A18E8B24E07D
:1013C00030E0281B31093D872C8790913301981715
:1013D00010F48093330190E09C01220F331F220F01
:1013E000331F220F331F820F931FB80187599E4F5F
:1013F0000E94D00081E005C080E003C080E001C011
:1014000080E0DF91CF911F910F910895DC01E09171
:101410009701F0919801808191E0811190E09C9377
:10142000911106C00580F681E02D8081918108959B
:1014300080E090E00895FC01738362839187808748
:101440004617570790F0421B530B84859585481724
:101450005907E0F4BF016E5F7F4F80919501909135
:1014600096010E94F10080E008954217530718F496
:101470006217730768F4BF016E5F7F4F8091970119
:10148000909198010E94F10080E0089581E0089514
:1014900081E008950FB6F8940F9280919301909196
:1014A0009401892BE9F482EA91E00E94BE0089E967
:1014B00091E00E94BE0082EA91E0909398018093AF
:1014C000970189E991E0909396018093950140E01E
:1014D00065E08AE00E946F039093940180939301EA
:1014E0000F900FBE0895EF92FF920F930E944A0A49
:1014F0008091930190919401892B91F00F2EF1E945
:10150000EF2EF1E0FF2EF02D03E020E030E045E586
:1015100050E06BE071E086E69CE00E94CB0601C0E3
:1015200080E00F91FF90EF9008950F931F93CF935A
:10153000DF9300D000D01F92CDB7DEB7E0919301CA
:10154000F0919401309771F1D90169835B834A83EB
:101550009D838C836630ECF40E94B809823061F47C
:1015600020E0A801BE016F5F7F4F809193019091B1
:1015700094010E94940317C020E040E050E0BE01B7
:101580006F5F7F4F80919301909194010E9494032B
:101590000AC020E0AD01BE016F5F7F4FCF010E9406
:1015A000260401C080E00F900F900F900F900F90D5
:1015B000DF91CF911F910F910895EF92FF920F93BA
:1015C0001F93CF93DF9330C00580F681E02DE0803C
:1015D000F180C681D7818E010E5F1F4FC8010E9426
:1015E0002201E889F989CE0109958A8982FF1CC008
:1015F0008C859D858E0D9F1DE816F90660F49B83F2
:101600008A83D987C887B801809197019091980102
:101610000E94F10009C000E010E020E030E0A701E6
:1016200060E0CE010E94950AE0919701F091980147
:1016300080818111C9CF80919501909196019093FD
:10164000980180939701F0939601E0939501DF91C3
:10165000CF911F910F91FF90EF9008950F931F93DB
:10166000CF93DF938C010E944D07EC0180918F0195
:1016700090919001C817D90730F40E94DD0A81E0EB
:10168000F801808302C0F8011082D0939001C093CA
:101690008F01CE01DF91CF911F910F910895EF92AD
:1016A000FF920F931F93CF93DF937C018B01E09107
:1016B0009701F09198010580F681E02DC681D781D0
:1016C000CE0102960E9422018A8982FF15C06C8594
:1016D0007D856E0D7F1D9701A801CE010E941B0A1A
:1016E000882361F000E010E020E030E0A70160E036
:1016F000CE010E94950A02C08E7F8A8BE889F98903
:10170000CE010995DF91CF911F910F91FF90EF903E
:101710000895CF92DF92EF92FF921F93CF93DF93C2
:101720001F92CDB7DEB77C01162F0E944707CE016E
:1017300001960E942E0B6C018981811127C0111125
:101740000AC0CE14DF0438F00E941508B601C701A4
:101750000E944F0B1DC0112341F0E0919501F091C3
:101760009601808111E0811110E0B7016C197D09AB
:10177000412F80919301909194010E94F1040E9465
:101780001508811105C00E94950102C00E9415082C
:101790000F90DF91CF911F91FF90EF90DF90CF904E
:1017A0000895EF92FF920F931F93CF93DF9300D092
:1017B00000D000D0CDB7DEB76FC0898188230CF48C
:1017C0006BC0EC80FD80D7011A968D919C911B9780
:1017D000892B21F0C70102960E942201CE010696B4
:1017E0000E942E0BE9810E2E000CFF0BEA30F10552
:1017F00008F052C0EC5CFF4F0C94340DF7012289C5
:101800002160228B2A813B8164857585620F731F5D
:10181000AC01C7010E941B0A8823F1F1D701509641
:10182000ED91FC915197C7010995F701828982FFDB
:1018300033C04A815B8184859585480F591F00E03C
:1018400010E020E030E060E0C7010E94950A24C06B
:10185000D70152968C9152978E7F52968C931CC0D2
:10186000F70122892160228B6A817B8175876487D9
:10187000680F791F9C01AC01C7010E941B0A0CC0B4
:10188000D70152968C9181FD04C0C7010E9470005F
:1018900003C08E7FF701828B40E050E0BE016F5F96
:1018A0007F4F80919301909194010E946204811175
:1018B00084CF26960FB6F894DEBF0FBECDBFDF9162
:1018C000CF911F910F91FF90EF900895CF93DF93E9
:1018D0001F92CDB7DEB7CE0101960E94060A69813C
:1018E0000E94890B0E94D10BF6CF0E944D070FB6C4
:1018F000F8940F9285B1816085B920E030E00AC08C
:10190000019602C080E090E0803A4FE09407C4F373
:101910002F5F3F4F26393105ACF385B18E7F85B9F6
:101920000F900FBE20E030E00AC0019602C080E0B8
:1019300090E0803A4FE09407C4F32F5F3F4F283583
:1019400082E03807A4F3D3CF0E944D070FB6F89476
:101950000F9285B1826085B920E030E00AC001961F
:1019600002C080E090E0803A4FE09407C4F32F5F1C
:101970003F4F2C3281E03807A4F385B18D7F85B9C4
:101980000F900FBE20E030E00AC0019602C080E058
:1019900090E0803A4FE09407C4F32F5F3F4F2C3222
:1019A00081E03807A4F3D2CF0E944D070FB6F89418
:1019B0000F9285B1846085B920E030E00AC00196BD
:1019C00002C080E090E0803A4FE09407C4F32F5FBC
:1019D0003F4F223C81E03807A4F385B18B7F85B966
:1019E0000F900FBE20E030E00AC0019602C080E0F8
:1019F00090E0803A4FE09407C4F32F5F3F4F2A31C5
:101A000084E03807A4F3D2CF84B1816084B984B173
:101A1000826084B984B1846084B908950E94040D01
:101A2000E12CF12C01E020E030E040E051E063E106
:101A300071E085E79CE00E94CB0620E030E040E0CA
:101A400051E06AE171E084EA9CE00E94CB0620E06C
:101A500030E040E051E061E271E084ED9CE00E9402
:101A6000CB060E941907FFCFEE0FFF1F0590F491E0
:101A7000E02D09940F931F93CF93DF93823091054C
:101A800010F482E090E0E091AD01F091AE0120E031
:101A900030E0A0E0B0E0309719F14081518102813F
:101AA000138148175907C8F08417950769F41097F0
:101AB00031F012960C93129713961C9327C0009343
:101AC000AD011093AE0122C02115310519F0421766
:101AD000530718F49A01BD01EF01DF01F801DBCFD4
:101AE00021153105F9F0281B390B2430310580F41C
:101AF0008A819B816115710521F0FB0193838283AB
:101B000004C09093AE018093AD01FE01329644C0B3
:101B1000FE01E20FF31F8193919322503109398323
:101B200028833AC02091AB013091AC01232B41F4C2
:101B300020910201309103013093AC012093AB015D
:101B400020910001309101012115310541F42DB79B
:101B50003EB74091040150910501241B350BE091E3
:101B6000AB01F091AC01E217F307A0F42E1B3F0B81
:101B70002817390778F0AC014E5F5F4F24173507FF
:101B800048F04E0F5F1F5093AC014093AB0181931F
:101B9000919302C0E0E0F0E0CF01DF91CF911F917F
:101BA0000F910895CF93DF93009709F481C0FC0152
:101BB000329713821282A091AD01B091AE011097BD
:101BC00081F420813181820F931F2091AB013091EC
:101BD000AC012817390751F5F093AC01E093AB0144
:101BE00067C0ED0120E030E0CE17DF0740F44A8106
:101BF0005B819E0141155105F1F0EA01F5CFD383D8
:101C0000C28340815181840F951FC817D90759F4A9
:101C100088819981840F951F0296918380838A81A0
:101C20009B81938382832115310529F4F093AE01C2
:101C3000E093AD013DC0E901FB83EA8349915991ED
:101C4000C40FD51FEC17FD0761F480819181840FCB
:101C5000951F0296E90199838883828193819B83F2
:101C60008A83E0E0F0E012968D919C9113970097A3
:101C700019F0FD01DC01F7CF8D919C9111979D0129
:101C80002E5F3F4F820F931F2091AB013091AC012B
:101C90002817390769F4309729F41092AE01109291
:101CA000AD0102C013821282B093AC01A093AB01CC
:101CB000DF91CF910895FB01DC0102C001900D92EC
:101CC00041505040D8F70895DC0101C06D93415058
:0A1CD0005040E0F70895F894FFCFAC
:101CDA000000AF01200049444C4500546D72205366
:101CEA007663005461736B2041005461736B204228
:081CFA00005461736B204300EC
:00000001FF
