:100000000C9434000C943E000C943E000C943E0082
:100010000C943E000C943E000C943E000C943E0068
:100020000C943E000C943E000C943E000C943E0058
:100030000C943E000C943E000C943E000C943E0048
:100040000C9440000C943E000C943E000C943E0036
:100050000C943E000C943E000C943E000C943E0028
:100060000C943E000C943E0011241FBECFEFD8E04C
:10007000DEBFCDBF0E9468000C946B000C940000A2
:100080001F920F920FB60F9211248F9385B580683F
:1000900085BD8F910F900FBE0F901F901895F8940B
:1000A0008AB180648AB98BB180648BB9EEE6F0E0E6
:1000B00080818160808315BC85B5826085BD14BC5C
:1000C00084B5806484BD85B3816085BB78940895D0
:0A00D0000E944F00FFCFF894FFCF0D
:00000001FF
