:100000000C9434000C9451000C9451000C94510049
:100010000C9451000C9451000C9451000C9451001C
:100020000C9451000C9451000C9451000C9451000C
:100030000C9451000C9451000C9453000C945100FA
:100040000C9451000C9451000C9451000C945100EC
:100050000C9451000C9451000C9451000C945100DC
:100060000C9451000C94510011241FBECFEFD8E026
:10007000DEBFCDBF11E0A0E0B1E0E2E6F1E002C0FA
:1000800005900D92AE38B107D9F721E0AEE8B1E0A6
:1000900001C01D92A039B207E1F70E94AC000C9498
:1000A000AF000C9400001F920F920FB60F92112414
:1000B0008F939F93EF93FF9380918E0190918F0187
:1000C00086349105A4F4E0918E01F0918F01EE0F3A
:1000D000FF1FE050FF4F808188BD80918E0190917D
:1000E0008F01019690938F0180938E0104C010922E
:1000F0008F0110928E01FF91EF919F918F910F9040
:100100000FBE0F901F901895F8948AB180628AB93B
:1001100085B5846085BD85B58D7F85BD85B58E7FB0
:1001200085BD14BC84B5806284BD84B58F7E84BDDA
:1001300085B5886085BD84B5826084BD84B58160E5
:1001400084BDEEE6F0E08081826080838DE887BD2B
:1001500087E488BD789408950E948400FFCFF894C6
:02016000FFCFCF
:1001620047004D00530059005F0065006B007000AE
:10017200750079007E008100850087008A008B006F
:100182008C008D008D008C008B008A00870085001A
:1001920081007E007900750070006B0065005F00D1
:1001A200590053004D00470040003A0034002E0031
:1001B200280022001D00180014000F000C00080087
:1001C200060003000200010000000000010002001E
:1001D2000300060008000C000F00140018001D00A8
:0E01E200220028002E0034003A0040004700A2
:00000001FF
